{
  "_format": "hh-sol-artifact-1",
  "contractName": "Tickets",
  "sourceName": "contracts/Tickets.sol",
  "abi": [
    {
      "inputs": [],
      "stateMutability": "nonpayable",
      "type": "constructor"
    },
    {
      "anonymous": false,
      "inputs": [
        {
          "indexed": false,
          "internalType": "string",
          "name": "ticket_owner",
          "type": "string"
        },
        {
          "indexed": false,
          "internalType": "uint256",
          "name": "amount",
          "type": "uint256"
        },
        {
          "indexed": false,
          "internalType": "string",
          "name": "month",
          "type": "string"
        },
        {
          "indexed": false,
          "internalType": "string",
          "name": "pool_type",
          "type": "string"
        },
        {
          "indexed": false,
          "internalType": "uint256",
          "name": "timestamp",
          "type": "uint256"
        },
        {
          "indexed": false,
          "internalType": "string",
          "name": "keyword",
          "type": "string"
        }
      ],
      "name": "buy",
      "type": "event"
    },
    {
      "inputs": [
        {
          "internalType": "uint256",
          "name": "amount",
          "type": "uint256"
        },
        {
          "internalType": "string",
          "name": "ticket_owner",
          "type": "string"
        },
        {
          "internalType": "string",
          "name": "month",
          "type": "string"
        },
        {
          "internalType": "string",
          "name": "pool_type",
          "type": "string"
        },
        {
          "internalType": "string",
          "name": "keyword",
          "type": "string"
        }
      ],
      "name": "buyTicket",
      "outputs": [],
      "stateMutability": "payable",
      "type": "function"
    },
    {
      "inputs": [],
      "name": "getAllTickets",
      "outputs": [
        {
          "components": [
            {
              "internalType": "string",
              "name": "ticket_owner",
              "type": "string"
            },
            {
              "internalType": "uint256",
              "name": "amount",
              "type": "uint256"
            },
            {
              "internalType": "string",
              "name": "month",
              "type": "string"
            },
            {
              "internalType": "string",
              "name": "pool_type",
              "type": "string"
            },
            {
              "internalType": "uint256",
              "name": "timestamp",
              "type": "uint256"
            },
            {
              "internalType": "string",
              "name": "keyword",
              "type": "string"
            }
          ],
          "internalType": "struct Tickets.TicketStruct[]",
          "name": "",
          "type": "tuple[]"
        }
      ],
      "stateMutability": "view",
      "type": "function"
    },
    {
      "inputs": [],
      "name": "getBalance",
      "outputs": [
        {
          "internalType": "uint256",
          "name": "",
          "type": "uint256"
        }
      ],
      "stateMutability": "view",
      "type": "function"
    },
    {
      "inputs": [],
      "name": "owner",
      "outputs": [
        {
          "internalType": "address",
          "name": "",
          "type": "address"
        }
      ],
      "stateMutability": "view",
      "type": "function"
    },
    {
      "inputs": [
        {
          "internalType": "address payable",
          "name": "recipient",
          "type": "address"
        },
        {
          "internalType": "uint256",
          "name": "amount",
          "type": "uint256"
        }
      ],
      "name": "transferEther",
      "outputs": [
        {
          "internalType": "bool",
          "name": "",
          "type": "bool"
        }
      ],
      "stateMutability": "nonpayable",
      "type": "function"
    }
  ],
  "bytecode": "0x608060405234801561001057600080fd5b50336000806101000a81548173ffffffffffffffffffffffffffffffffffffffff021916908373ffffffffffffffffffffffffffffffffffffffff160217905550610e2e806100606000396000f3fe60806040526004361061004a5760003560e01c806303e96fe31461004f57806305b1137b1461007a57806312065fe0146100b757806388597b10146100e25780638da5cb5b146100fe575b600080fd5b34801561005b57600080fd5b50610064610129565b6040516100719190610ad1565b60405180910390f35b34801561008657600080fd5b506100a1600480360381019061009c9190610768565b6103e4565b6040516100ae9190610af3565b60405180910390f35b3480156100c357600080fd5b506100cc6104dd565b6040516100d99190610bab565b60405180910390f35b6100fc60048036038101906100f791906107a4565b6104e5565b005b34801561010a57600080fd5b5061011361060f565b6040516101209190610ab6565b60405180910390f35b60606001805480602002602001604051908101604052809291908181526020016000905b828210156103db57838290600052602060002090600602016040518060c001604052908160008201805461018090610d29565b80601f01602080910402602001604051908101604052809291908181526020018280546101ac90610d29565b80156101f95780601f106101ce576101008083540402835291602001916101f9565b820191906000526020600020905b8154815290600101906020018083116101dc57829003601f168201915b505050505081526020016001820154815260200160028201805461021c90610d29565b80601f016020809104026020016040519081016040528092919081815260200182805461024890610d29565b80156102955780601f1061026a57610100808354040283529160200191610295565b820191906000526020600020905b81548152906001019060200180831161027857829003601f168201915b505050505081526020016003820180546102ae90610d29565b80601f01602080910402602001604051908101604052809291908181526020018280546102da90610d29565b80156103275780601f106102fc57610100808354040283529160200191610327565b820191906000526020600020905b81548152906001019060200180831161030a57829003601f168201915b505050505081526020016004820154815260200160058201805461034a90610d29565b80601f016020809104026020016040519081016040528092919081815260200182805461037690610d29565b80156103c35780601f10610398576101008083540402835291602001916103c3565b820191906000526020600020905b8154815290600101906020018083116103a657829003601f168201915b5050505050815250508152602001906001019061014d565b50505050905090565b60003373ffffffffffffffffffffffffffffffffffffffff1660008054906101000a900473ffffffffffffffffffffffffffffffffffffffff1673ffffffffffffffffffffffffffffffffffffffff1614610474576040517f08c379a000000000000000000000000000000000000000000000000000000000815260040161046b90610b8b565b60405180910390fd5b61047c6104dd565b82116104d2578273ffffffffffffffffffffffffffffffffffffffff166108fc839081150290604051600060405180830381858888f193505050501580156104c8573d6000803e3d6000fd5b50600190506104d7565b600090505b92915050565b600047905090565b60016040518060c001604052808681526020018781526020018581526020018481526020014281526020018381525090806001815401808255809150506001900390600052602060002090600602016000909190919091506000820151816000019080519060200190610559929190610633565b50602082015181600101556040820151816002019080519060200190610580929190610633565b50606082015181600301908051906020019061059d929190610633565b506080820151816004015560a08201518160050190805190602001906105c4929190610633565b5050507f6354d55b761f61c3c46991abbe9e7199f696f8ee7ecf712762d725d528b2653684868585428660405161060096959493929190610b0e565b60405180910390a15050505050565b60008054906101000a900473ffffffffffffffffffffffffffffffffffffffff1681565b82805461063f90610d29565b90600052602060002090601f01602090048101928261066157600085556106a8565b82601f1061067a57805160ff19168380011785556106a8565b828001600101855582156106a8579182015b828111156106a757825182559160200191906001019061068c565b5b5090506106b591906106b9565b5090565b5b808211156106d25760008160009055506001016106ba565b5090565b60006106e96106e484610bf7565b610bc6565b90508281526020810184848401111561070157600080fd5b61070c848285610ce7565b509392505050565b60008135905061072381610dca565b92915050565b600082601f83011261073a57600080fd5b813561074a8482602086016106d6565b91505092915050565b60008135905061076281610de1565b92915050565b6000806040838503121561077b57600080fd5b600061078985828601610714565b925050602061079a85828601610753565b9150509250929050565b600080600080600060a086880312156107bc57600080fd5b60006107ca88828901610753565b955050602086013567ffffffffffffffff8111156107e757600080fd5b6107f388828901610729565b945050604086013567ffffffffffffffff81111561081057600080fd5b61081c88828901610729565b935050606086013567ffffffffffffffff81111561083957600080fd5b61084588828901610729565b925050608086013567ffffffffffffffff81111561086257600080fd5b61086e88828901610729565b9150509295509295909350565b600061088783836109fa565b905092915050565b61089881610c8d565b82525050565b60006108a982610c37565b6108b38185610c5a565b9350836020820285016108c585610c27565b8060005b8581101561090157848403895281516108e2858261087b565b94506108ed83610c4d565b925060208a019950506001810190506108c9565b50829750879550505050505092915050565b61091c81610cb1565b82525050565b600061092d82610c42565b6109378185610c6b565b9350610947818560208601610cf6565b61095081610db9565b840191505092915050565b600061096682610c42565b6109708185610c7c565b9350610980818560208601610cf6565b61098981610db9565b840191505092915050565b60006109a1602883610c7c565b91507f5472616e73666572206661696c65642c20796f7520617265206e6f742074686560008301527f206f776e657221210000000000000000000000000000000000000000000000006020830152604082019050919050565b600060c0830160008301518482036000860152610a178282610922565b9150506020830151610a2c6020860182610a98565b5060408301518482036040860152610a448282610922565b91505060608301518482036060860152610a5e8282610922565b9150506080830151610a736080860182610a98565b5060a083015184820360a0860152610a8b8282610922565b9150508091505092915050565b610aa181610cdd565b82525050565b610ab081610cdd565b82525050565b6000602082019050610acb600083018461088f565b92915050565b60006020820190508181036000830152610aeb818461089e565b905092915050565b6000602082019050610b086000830184610913565b92915050565b600060c0820190508181036000830152610b28818961095b565b9050610b376020830188610aa7565b8181036040830152610b49818761095b565b90508181036060830152610b5d818661095b565b9050610b6c6080830185610aa7565b81810360a0830152610b7e818461095b565b9050979650505050505050565b60006020820190508181036000830152610ba481610994565b9050919050565b6000602082019050610bc06000830184610aa7565b92915050565b6000604051905081810181811067ffffffffffffffff82111715610bed57610bec610d8a565b5b8060405250919050565b600067ffffffffffffffff821115610c1257610c11610d8a565b5b601f19601f8301169050602081019050919050565b6000819050602082019050919050565b600081519050919050565b600081519050919050565b6000602082019050919050565b600082825260208201905092915050565b600082825260208201905092915050565b600082825260208201905092915050565b6000610c9882610cbd565b9050919050565b6000610caa82610cbd565b9050919050565b60008115159050919050565b600073ffffffffffffffffffffffffffffffffffffffff82169050919050565b6000819050919050565b82818337600083830152505050565b60005b83811015610d14578082015181840152602081019050610cf9565b83811115610d23576000848401525b50505050565b60006002820490506001821680610d4157607f821691505b60208210811415610d5557610d54610d5b565b5b50919050565b7f4e487b7100000000000000000000000000000000000000000000000000000000600052602260045260246000fd5b7f4e487b7100000000000000000000000000000000000000000000000000000000600052604160045260246000fd5b6000601f19601f8301169050919050565b610dd381610c9f565b8114610dde57600080fd5b50565b610dea81610cdd565b8114610df557600080fd5b5056fea2646970667358221220a860538fda69498f9d999652e068c86a568028ec8224ec5d6332784420f9223a64736f6c63430008000033",
  "linkReferences": {},
  "deployedLinkReferences": {}
}