{
    "_format": "hh-sol-artifact-1",
    "contractName": "Transactions",
    "sourceName": "contracts/Transactions.sol",
    "abi": [
        {
            "anonymous": false,
            "inputs": [
                {
                    "indexed": false,
                    "internalType": "address",
                    "name": "from",
                    "type": "address"
                },
                {
                    "indexed": false,
                    "internalType": "address",
                    "name": "receiver",
                    "type": "address"
                },
                {
                    "indexed": false,
                    "internalType": "uint256",
                    "name": "amount",
                    "type": "uint256"
                },
                {
                    "indexed": false,
                    "internalType": "string",
                    "name": "month",
                    "type": "string"
                },
                {
                    "indexed": false,
                    "internalType": "string",
                    "name": "pool_type",
                    "type": "string"
                },
                {
                    "indexed": false,
                    "internalType": "uint256",
                    "name": "timestamp",
                    "type": "uint256"
                },
                {
                    "indexed": false,
                    "internalType": "string",
                    "name": "keyword",
                    "type": "string"
                }
            ],
            "name": "Transfer",
            "type": "event"
        },
        {
            "inputs": [
                {
                    "internalType": "address payable",
                    "name": "receiver",
                    "type": "address"
                },
                {
                    "internalType": "uint256",
                    "name": "amount",
                    "type": "uint256"
                },
                {
                    "internalType": "string",
                    "name": "month",
                    "type": "string"
                },
                {
                    "internalType": "string",
                    "name": "pool_type",
                    "type": "string"
                },
                {
                    "internalType": "string",
                    "name": "keyword",
                    "type": "string"
                }
            ],
            "name": "addToBlockchain",
            "outputs": [],
            "stateMutability": "nonpayable",
            "type": "function"
        },
        {
            "inputs": [],
            "name": "getAllTransactions",
            "outputs": [
                {
                    "components": [
                        {
                            "internalType": "address",
                            "name": "sender",
                            "type": "address"
                        },
                        {
                            "internalType": "address",
                            "name": "receiver",
                            "type": "address"
                        },
                        {
                            "internalType": "uint256",
                            "name": "amount",
                            "type": "uint256"
                        },
                        {
                            "internalType": "string",
                            "name": "month",
                            "type": "string"
                        },
                        {
                            "internalType": "string",
                            "name": "pool_type",
                            "type": "string"
                        },
                        {
                            "internalType": "uint256",
                            "name": "timestamp",
                            "type": "uint256"
                        },
                        {
                            "internalType": "string",
                            "name": "keyword",
                            "type": "string"
                        }
                    ],
                    "internalType": "struct Transactions.TransferStruct[]",
                    "name": "",
                    "type": "tuple[]"
                }
            ],
            "stateMutability": "view",
            "type": "function"
        }
    ],
    "bytecode": "0x608060405234801561001057600080fd5b50610cd3806100206000396000f3fe608060405234801561001057600080fd5b50600436106100365760003560e01c806327506f531461003b578063be9863a314610059575b600080fd5b610043610075565b604051610050919061099a565b60405180910390f35b610073600480360381019061006e9190610667565b61034a565b005b60606001805480602002602001604051908101604052809291908181526020016000905b8282101561034157838290600052602060002090600702016040518060e00160405290816000820160009054906101000a900473ffffffffffffffffffffffffffffffffffffffff1673ffffffffffffffffffffffffffffffffffffffff1673ffffffffffffffffffffffffffffffffffffffff1681526020016001820160009054906101000a900473ffffffffffffffffffffffffffffffffffffffff1673ffffffffffffffffffffffffffffffffffffffff1673ffffffffffffffffffffffffffffffffffffffff1681526020016002820154815260200160038201805461018290610b9f565b80601f01602080910402602001604051908101604052809291908181526020018280546101ae90610b9f565b80156101fb5780601f106101d0576101008083540402835291602001916101fb565b820191906000526020600020905b8154815290600101906020018083116101de57829003601f168201915b5050505050815260200160048201805461021490610b9f565b80601f016020809104026020016040519081016040528092919081815260200182805461024090610b9f565b801561028d5780601f106102625761010080835404028352916020019161028d565b820191906000526020600020905b81548152906001019060200180831161027057829003601f168201915b50505050508152602001600582015481526020016006820180546102b090610b9f565b80601f01602080910402602001604051908101604052809291908181526020018280546102dc90610b9f565b80156103295780601f106102fe57610100808354040283529160200191610329565b820191906000526020600020905b81548152906001019060200180831161030c57829003601f168201915b50505050508152505081526020019060010190610099565b50505050905090565b600160008082825461035c9190610a83565b9250508190555060016040518060e001604052803373ffffffffffffffffffffffffffffffffffffffff1681526020018773ffffffffffffffffffffffffffffffffffffffff16815260200186815260200185815260200184815260200142815260200183815250908060018154018082558091505060019003906000526020600020906007020160009091909190915060008201518160000160006101000a81548173ffffffffffffffffffffffffffffffffffffffff021916908373ffffffffffffffffffffffffffffffffffffffff16021790555060208201518160010160006101000a81548173ffffffffffffffffffffffffffffffffffffffff021916908373ffffffffffffffffffffffffffffffffffffffff1602179055506040820151816002015560608201518160030190805190602001906104a1929190610532565b5060808201518160040190805190602001906104be929190610532565b5060a0820151816005015560c08201518160060190805190602001906104e5929190610532565b5050507f377381d17aa392a8c1d3a26cfcdfc9232983d9c2c5a580596a79465583cf95e5338686868642876040516105239796959493929190610916565b60405180910390a15050505050565b82805461053e90610b9f565b90600052602060002090601f01602090048101928261056057600085556105a7565b82601f1061057957805160ff19168380011785556105a7565b828001600101855582156105a7579182015b828111156105a657825182559160200191906001019061058b565b5b5090506105b491906105b8565b5090565b5b808211156105d15760008160009055506001016105b9565b5090565b60006105e86105e3846109ed565b6109bc565b90508281526020810184848401111561060057600080fd5b61060b848285610b5d565b509392505050565b60008135905061062281610c6f565b92915050565b600082601f83011261063957600080fd5b81356106498482602086016105d5565b91505092915050565b60008135905061066181610c86565b92915050565b600080600080600060a0868803121561067f57600080fd5b600061068d88828901610613565b955050602061069e88828901610652565b945050604086013567ffffffffffffffff8111156106bb57600080fd5b6106c788828901610628565b935050606086013567ffffffffffffffff8111156106e457600080fd5b6106f088828901610628565b925050608086013567ffffffffffffffff81111561070d57600080fd5b61071988828901610628565b9150509295509295909350565b6000610732838361084e565b905092915050565b61074381610b27565b82525050565b61075281610ad9565b82525050565b61076181610ad9565b82525050565b600061077282610a2d565b61077c8185610a50565b93508360208202850161078e85610a1d565b8060005b858110156107ca57848403895281516107ab8582610726565b94506107b683610a43565b925060208a01995050600181019050610792565b50829750879550505050505092915050565b60006107e782610a38565b6107f18185610a61565b9350610801818560208601610b6c565b61080a81610c5e565b840191505092915050565b600061082082610a38565b61082a8185610a72565b935061083a818560208601610b6c565b61084381610c5e565b840191505092915050565b600060e0830160008301516108666000860182610749565b5060208301516108796020860182610749565b50604083015161088c60408601826108f8565b50606083015184820360608601526108a482826107dc565b915050608083015184820360808601526108be82826107dc565b91505060a08301516108d360a08601826108f8565b5060c083015184820360c08601526108eb82826107dc565b9150508091505092915050565b61090181610b1d565b82525050565b61091081610b1d565b82525050565b600060e08201905061092b600083018a610758565b610938602083018961073a565b6109456040830188610907565b81810360608301526109578187610815565b9050818103608083015261096b8186610815565b905061097a60a0830185610907565b81810360c083015261098c8184610815565b905098975050505050505050565b600060208201905081810360008301526109b48184610767565b905092915050565b6000604051905081810181811067ffffffffffffffff821117156109e3576109e2610c2f565b5b8060405250919050565b600067ffffffffffffffff821115610a0857610a07610c2f565b5b601f19601f8301169050602081019050919050565b6000819050602082019050919050565b600081519050919050565b600081519050919050565b6000602082019050919050565b600082825260208201905092915050565b600082825260208201905092915050565b600082825260208201905092915050565b6000610a8e82610b1d565b9150610a9983610b1d565b9250827fffffffffffffffffffffffffffffffffffffffffffffffffffffffffffffffff03821115610ace57610acd610bd1565b5b828201905092915050565b6000610ae482610afd565b9050919050565b6000610af682610afd565b9050919050565b600073ffffffffffffffffffffffffffffffffffffffff82169050919050565b6000819050919050565b6000610b3282610b39565b9050919050565b6000610b4482610b4b565b9050919050565b6000610b5682610afd565b9050919050565b82818337600083830152505050565b60005b83811015610b8a578082015181840152602081019050610b6f565b83811115610b99576000848401525b50505050565b60006002820490506001821680610bb757607f821691505b60208210811415610bcb57610bca610c00565b5b50919050565b7f4e487b7100000000000000000000000000000000000000000000000000000000600052601160045260246000fd5b7f4e487b7100000000000000000000000000000000000000000000000000000000600052602260045260246000fd5b7f4e487b7100000000000000000000000000000000000000000000000000000000600052604160045260246000fd5b6000601f19601f8301169050919050565b610c7881610aeb565b8114610c8357600080fd5b50565b610c8f81610b1d565b8114610c9a57600080fd5b5056fea26469706673582212201b38a96f63f1758263288c79be77e666727f89ef25392c23c1d2365ead7e59dc64736f6c63430008000033",
    "linkReferences": {},
    "deployedLinkReferences": {}
}