{
  "_format": "hh-sol-artifact-1",
  "contractName": "Winners",
  "sourceName": "contracts/Winners.sol",
  "abi": [
    {
      "inputs": [],
      "stateMutability": "nonpayable",
      "type": "constructor"
    },
    {
      "anonymous": false,
      "inputs": [
        {
          "indexed": false,
          "internalType": "string",
          "name": "amount",
          "type": "string"
        },
        {
          "indexed": false,
          "internalType": "string",
          "name": "winnerAddress",
          "type": "string"
        },
        {
          "indexed": false,
          "internalType": "string",
          "name": "pool_code",
          "type": "string"
        },
        {
          "indexed": false,
          "internalType": "string",
          "name": "pool_standing",
          "type": "string"
        },
        {
          "indexed": false,
          "internalType": "uint256",
          "name": "timestamp",
          "type": "uint256"
        }
      ],
      "name": "Winner",
      "type": "event"
    },
    {
      "inputs": [
        {
          "internalType": "string",
          "name": "amount",
          "type": "string"
        },
        {
          "internalType": "string",
          "name": "winner_address",
          "type": "string"
        },
        {
          "internalType": "string",
          "name": "pool_code",
          "type": "string"
        },
        {
          "internalType": "string",
          "name": "pool_standing",
          "type": "string"
        }
      ],
      "name": "addWinnerStructToBlockchain",
      "outputs": [],
      "stateMutability": "nonpayable",
      "type": "function"
    },
    {
      "inputs": [],
      "name": "getAllWinners",
      "outputs": [
        {
          "components": [
            {
              "internalType": "string",
              "name": "amount",
              "type": "string"
            },
            {
              "internalType": "string",
              "name": "winner_address",
              "type": "string"
            },
            {
              "internalType": "string",
              "name": "pool_code",
              "type": "string"
            },
            {
              "internalType": "string",
              "name": "pool_standing",
              "type": "string"
            },
            {
              "internalType": "uint256",
              "name": "timestamp",
              "type": "uint256"
            }
          ],
          "internalType": "struct Winners.WinnerStruct[]",
          "name": "",
          "type": "tuple[]"
        }
      ],
      "stateMutability": "view",
      "type": "function"
    },
    {
      "inputs": [],
      "name": "owner",
      "outputs": [
        {
          "internalType": "address",
          "name": "",
          "type": "address"
        }
      ],
      "stateMutability": "view",
      "type": "function"
    }
  ],
  "bytecode": "0x608060405234801561001057600080fd5b50336000806101000a81548173ffffffffffffffffffffffffffffffffffffffff021916908373ffffffffffffffffffffffffffffffffffffffff160217905550610bc1806100606000396000f3fe608060405234801561001057600080fd5b50600436106100415760003560e01c8063135e8bf1146100465780638da5cb5b14610062578063dc6b862714610080575b600080fd5b610060600480360381019061005b9190610623565b61009e565b005b61006a610243565b60405161007791906108d9565b60405180910390f35b610088610267565b60405161009591906108f4565b60405180910390f35b3373ffffffffffffffffffffffffffffffffffffffff1660008054906101000a900473ffffffffffffffffffffffffffffffffffffffff1673ffffffffffffffffffffffffffffffffffffffff161461012c576040517f08c379a000000000000000000000000000000000000000000000000000000000815260040161012390610985565b60405180910390fd5b60016040518060a00160405280868152602001858152602001848152602001838152602001428152509080600181540180825580915050600190039060005260206000209060050201600090919091909150600082015181600001908051906020019061019a929190610518565b5060208201518160010190805190602001906101b7929190610518565b5060408201518160020190805190602001906101d4929190610518565b5060608201518160030190805190602001906101f1929190610518565b506080820151816004015550507fd8cd143f48735e52961397b09fe764702dadaea94a479695963c86a9136e5d528484848442604051610235959493929190610916565b60405180910390a150505050565b60008054906101000a900473ffffffffffffffffffffffffffffffffffffffff1681565b60606001805480602002602001604051908101604052809291908181526020016000905b8282101561050f57838290600052602060002090600502016040518060a00160405290816000820180546102be90610aea565b80601f01602080910402602001604051908101604052809291908181526020018280546102ea90610aea565b80156103375780601f1061030c57610100808354040283529160200191610337565b820191906000526020600020905b81548152906001019060200180831161031a57829003601f168201915b5050505050815260200160018201805461035090610aea565b80601f016020809104026020016040519081016040528092919081815260200182805461037c90610aea565b80156103c95780601f1061039e576101008083540402835291602001916103c9565b820191906000526020600020905b8154815290600101906020018083116103ac57829003601f168201915b505050505081526020016002820180546103e290610aea565b80601f016020809104026020016040519081016040528092919081815260200182805461040e90610aea565b801561045b5780601f106104305761010080835404028352916020019161045b565b820191906000526020600020905b81548152906001019060200180831161043e57829003601f168201915b5050505050815260200160038201805461047490610aea565b80601f01602080910402602001604051908101604052809291908181526020018280546104a090610aea565b80156104ed5780601f106104c2576101008083540402835291602001916104ed565b820191906000526020600020905b8154815290600101906020018083116104d057829003601f168201915b505050505081526020016004820154815250508152602001906001019061028b565b50505050905090565b82805461052490610aea565b90600052602060002090601f016020900481019282610546576000855561058d565b82601f1061055f57805160ff191683800117855561058d565b8280016001018555821561058d579182015b8281111561058c578251825591602001919060010190610571565b5b50905061059a919061059e565b5090565b5b808211156105b757600081600090555060010161059f565b5090565b60006105ce6105c9846109d6565b6109a5565b9050828152602081018484840111156105e657600080fd5b6105f1848285610aa8565b509392505050565b600082601f83011261060a57600080fd5b813561061a8482602086016105bb565b91505092915050565b6000806000806080858703121561063957600080fd5b600085013567ffffffffffffffff81111561065357600080fd5b61065f878288016105f9565b945050602085013567ffffffffffffffff81111561067c57600080fd5b610688878288016105f9565b935050604085013567ffffffffffffffff8111156106a557600080fd5b6106b1878288016105f9565b925050606085013567ffffffffffffffff8111156106ce57600080fd5b6106da878288016105f9565b91505092959194509250565b60006106f28383610830565b905092915050565b61070381610a6c565b82525050565b600061071482610a16565b61071e8185610a39565b93508360208202850161073085610a06565b8060005b8581101561076c578484038952815161074d85826106e6565b945061075883610a2c565b925060208a01995050600181019050610734565b50829750879550505050505092915050565b600061078982610a21565b6107938185610a4a565b93506107a3818560208601610ab7565b6107ac81610b7a565b840191505092915050565b60006107c282610a21565b6107cc8185610a5b565b93506107dc818560208601610ab7565b6107e581610b7a565b840191505092915050565b60006107fd600983610a5b565b91507f4e6f74204f776e657200000000000000000000000000000000000000000000006000830152602082019050919050565b600060a083016000830151848203600086015261084d828261077e565b91505060208301518482036020860152610867828261077e565b91505060408301518482036040860152610881828261077e565b9150506060830151848203606086015261089b828261077e565b91505060808301516108b060808601826108bb565b508091505092915050565b6108c481610a9e565b82525050565b6108d381610a9e565b82525050565b60006020820190506108ee60008301846106fa565b92915050565b6000602082019050818103600083015261090e8184610709565b905092915050565b600060a082019050818103600083015261093081886107b7565b9050818103602083015261094481876107b7565b9050818103604083015261095881866107b7565b9050818103606083015261096c81856107b7565b905061097b60808301846108ca565b9695505050505050565b6000602082019050818103600083015261099e816107f0565b9050919050565b6000604051905081810181811067ffffffffffffffff821117156109cc576109cb610b4b565b5b8060405250919050565b600067ffffffffffffffff8211156109f1576109f0610b4b565b5b601f19601f8301169050602081019050919050565b6000819050602082019050919050565b600081519050919050565b600081519050919050565b6000602082019050919050565b600082825260208201905092915050565b600082825260208201905092915050565b600082825260208201905092915050565b6000610a7782610a7e565b9050919050565b600073ffffffffffffffffffffffffffffffffffffffff82169050919050565b6000819050919050565b82818337600083830152505050565b60005b83811015610ad5578082015181840152602081019050610aba565b83811115610ae4576000848401525b50505050565b60006002820490506001821680610b0257607f821691505b60208210811415610b1657610b15610b1c565b5b50919050565b7f4e487b7100000000000000000000000000000000000000000000000000000000600052602260045260246000fd5b7f4e487b7100000000000000000000000000000000000000000000000000000000600052604160045260246000fd5b6000601f19601f830116905091905056fea264697066735822122000ef41807adc0fe961d2a27ae05946ff452b374ce02e2e33a5ec603522e3cd4064736f6c63430008000033",
  "linkReferences": {},
  "deployedLinkReferences": {}
}