{
    "_format": "hh-sol-artifact-1",
    "contractName": "Winners",
    "sourceName": "contracts/Winners.sol",
    "abi": [
        {
            "anonymous": false,
            "inputs": [
                {
                    "indexed": false,
                    "internalType": "string",
                    "name": "amount",
                    "type": "string"
                },
                {
                    "indexed": false,
                    "internalType": "string",
                    "name": "winnerAddress",
                    "type": "string"
                },
                {
                    "indexed": false,
                    "internalType": "string",
                    "name": "pool_code",
                    "type": "string"
                },
                {
                    "indexed": false,
                    "internalType": "string",
                    "name": "pool_standing",
                    "type": "string"
                },
                {
                    "indexed": false,
                    "internalType": "uint256",
                    "name": "timestamp",
                    "type": "uint256"
                }
            ],
            "name": "Winner",
            "type": "event"
        },
        {
            "inputs": [
                {
                    "internalType": "string",
                    "name": "amount",
                    "type": "string"
                },
                {
                    "internalType": "string",
                    "name": "winner_address",
                    "type": "string"
                },
                {
                    "internalType": "string",
                    "name": "pool_code",
                    "type": "string"
                },
                {
                    "internalType": "string",
                    "name": "pool_standing",
                    "type": "string"
                }
            ],
            "name": "addWinnerStructToBlockchain",
            "outputs": [],
            "stateMutability": "nonpayable",
            "type": "function"
        },
        {
            "inputs": [],
            "name": "getAllWinners",
            "outputs": [
                {
                    "components": [
                        {
                            "internalType": "string",
                            "name": "amount",
                            "type": "string"
                        },
                        {
                            "internalType": "string",
                            "name": "winner_address",
                            "type": "string"
                        },
                        {
                            "internalType": "string",
                            "name": "pool_code",
                            "type": "string"
                        },
                        {
                            "internalType": "string",
                            "name": "pool_standing",
                            "type": "string"
                        },
                        {
                            "internalType": "uint256",
                            "name": "timestamp",
                            "type": "uint256"
                        }
                    ],
                    "internalType": "struct Winners.WinnerStruct[]",
                    "name": "",
                    "type": "tuple[]"
                }
            ],
            "stateMutability": "view",
            "type": "function"
        }
    ],
    "bytecode": "0x608060405234801561001057600080fd5b50610a2a806100206000396000f3fe608060405234801561001057600080fd5b50600436106100365760003560e01c8063135e8bf11461003b578063dc6b862714610057575b600080fd5b61005560048036038101906100509190610548565b610075565b005b61005f61018c565b60405161006c91906107af565b60405180910390f35b60006040518060a0016040528086815260200185815260200184815260200183815260200142815250908060018154018082558091505060019003906000526020600020906005020160009091909190915060008201518160000190805190602001906100e392919061043d565b50602082015181600101908051906020019061010092919061043d565b50604082015181600201908051906020019061011d92919061043d565b50606082015181600301908051906020019061013a92919061043d565b506080820151816004015550507fd8cd143f48735e52961397b09fe764702dadaea94a479695963c86a9136e5d52848484844260405161017e9594939291906107d1565b60405180910390a150505050565b60606000805480602002602001604051908101604052809291908181526020016000905b8282101561043457838290600052602060002090600502016040518060a00160405290816000820180546101e390610953565b80601f016020809104026020016040519081016040528092919081815260200182805461020f90610953565b801561025c5780601f106102315761010080835404028352916020019161025c565b820191906000526020600020905b81548152906001019060200180831161023f57829003601f168201915b5050505050815260200160018201805461027590610953565b80601f01602080910402602001604051908101604052809291908181526020018280546102a190610953565b80156102ee5780601f106102c3576101008083540402835291602001916102ee565b820191906000526020600020905b8154815290600101906020018083116102d157829003601f168201915b5050505050815260200160028201805461030790610953565b80601f016020809104026020016040519081016040528092919081815260200182805461033390610953565b80156103805780601f1061035557610100808354040283529160200191610380565b820191906000526020600020905b81548152906001019060200180831161036357829003601f168201915b5050505050815260200160038201805461039990610953565b80601f01602080910402602001604051908101604052809291908181526020018280546103c590610953565b80156104125780601f106103e757610100808354040283529160200191610412565b820191906000526020600020905b8154815290600101906020018083116103f557829003601f168201915b50505050508152602001600482015481525050815260200190600101906101b0565b50505050905090565b82805461044990610953565b90600052602060002090601f01602090048101928261046b57600085556104b2565b82601f1061048457805160ff19168380011785556104b2565b828001600101855582156104b2579182015b828111156104b1578251825591602001919060010190610496565b5b5090506104bf91906104c3565b5090565b5b808211156104dc5760008160009055506001016104c4565b5090565b60006104f36104ee84610871565b610840565b90508281526020810184848401111561050b57600080fd5b610516848285610911565b509392505050565b600082601f83011261052f57600080fd5b813561053f8482602086016104e0565b91505092915050565b6000806000806080858703121561055e57600080fd5b600085013567ffffffffffffffff81111561057857600080fd5b6105848782880161051e565b945050602085013567ffffffffffffffff8111156105a157600080fd5b6105ad8782880161051e565b935050604085013567ffffffffffffffff8111156105ca57600080fd5b6105d68782880161051e565b925050606085013567ffffffffffffffff8111156105f357600080fd5b6105ff8782880161051e565b91505092959194509250565b60006106178383610706565b905092915050565b600061062a826108b1565b61063481856108d4565b935083602082028501610646856108a1565b8060005b858110156106825784840389528151610663858261060b565b945061066e836108c7565b925060208a0199505060018101905061064a565b50829750879550505050505092915050565b600061069f826108bc565b6106a981856108e5565b93506106b9818560208601610920565b6106c2816109e3565b840191505092915050565b60006106d8826108bc565b6106e281856108f6565b93506106f2818560208601610920565b6106fb816109e3565b840191505092915050565b600060a08301600083015184820360008601526107238282610694565b9150506020830151848203602086015261073d8282610694565b915050604083015184820360408601526107578282610694565b915050606083015184820360608601526107718282610694565b91505060808301516107866080860182610791565b508091505092915050565b61079a81610907565b82525050565b6107a981610907565b82525050565b600060208201905081810360008301526107c9818461061f565b905092915050565b600060a08201905081810360008301526107eb81886106cd565b905081810360208301526107ff81876106cd565b9050818103604083015261081381866106cd565b9050818103606083015261082781856106cd565b905061083660808301846107a0565b9695505050505050565b6000604051905081810181811067ffffffffffffffff82111715610867576108666109b4565b5b8060405250919050565b600067ffffffffffffffff82111561088c5761088b6109b4565b5b601f19601f8301169050602081019050919050565b6000819050602082019050919050565b600081519050919050565b600081519050919050565b6000602082019050919050565b600082825260208201905092915050565b600082825260208201905092915050565b600082825260208201905092915050565b6000819050919050565b82818337600083830152505050565b60005b8381101561093e578082015181840152602081019050610923565b8381111561094d576000848401525b50505050565b6000600282049050600182168061096b57607f821691505b6020821081141561097f5761097e610985565b5b50919050565b7f4e487b7100000000000000000000000000000000000000000000000000000000600052602260045260246000fd5b7f4e487b7100000000000000000000000000000000000000000000000000000000600052604160045260246000fd5b6000601f19601f830116905091905056fea264697066735822122043544fb893be65067413c918dfae63a68aae721da8cad2f948633e927130926764736f6c63430008000033",
    "linkReferences": {},
    "deployedLinkReferences": {}
}