{
  "_format": "hh-sol-artifact-1",
  "contractName": "Winners",
  "sourceName": "contracts/Winners.sol",
  "abi": [
    {
      "inputs": [],
      "stateMutability": "nonpayable",
      "type": "constructor"
    },
    {
      "anonymous": false,
      "inputs": [
        {
          "indexed": false,
          "internalType": "string",
          "name": "amount",
          "type": "string"
        },
        {
          "indexed": false,
          "internalType": "string",
          "name": "winnerAddress",
          "type": "string"
        },
        {
          "indexed": false,
          "internalType": "string",
          "name": "pool_code",
          "type": "string"
        },
        {
          "indexed": false,
          "internalType": "string",
          "name": "pool_standing",
          "type": "string"
        },
        {
          "indexed": false,
          "internalType": "string",
          "name": "pool_type",
          "type": "string"
        }
      ],
      "name": "Winner",
      "type": "event"
    },
    {
      "inputs": [
        {
          "internalType": "string",
          "name": "amount",
          "type": "string"
        },
        {
          "internalType": "string",
          "name": "winner_address",
          "type": "string"
        },
        {
          "internalType": "string",
          "name": "pool_code",
          "type": "string"
        },
        {
          "internalType": "string",
          "name": "pool_standing",
          "type": "string"
        },
        {
          "internalType": "string",
          "name": "pool_type",
          "type": "string"
        }
      ],
      "name": "addWinnerStructToBlockchain",
      "outputs": [],
      "stateMutability": "nonpayable",
      "type": "function"
    },
    {
      "inputs": [],
      "name": "getAllWinners",
      "outputs": [
        {
          "components": [
            {
              "internalType": "string",
              "name": "amount",
              "type": "string"
            },
            {
              "internalType": "string",
              "name": "winner_address",
              "type": "string"
            },
            {
              "internalType": "string",
              "name": "pool_code",
              "type": "string"
            },
            {
              "internalType": "string",
              "name": "pool_standing",
              "type": "string"
            },
            {
              "internalType": "string",
              "name": "pool_type",
              "type": "string"
            }
          ],
          "internalType": "struct Winners.WinnerStruct[]",
          "name": "",
          "type": "tuple[]"
        }
      ],
      "stateMutability": "view",
      "type": "function"
    },
    {
      "inputs": [],
      "name": "owner",
      "outputs": [
        {
          "internalType": "address",
          "name": "",
          "type": "address"
        }
      ],
      "stateMutability": "view",
      "type": "function"
    }
  ],
  "bytecode": "0x608060405234801561001057600080fd5b50336000806101000a81548173ffffffffffffffffffffffffffffffffffffffff021916908373ffffffffffffffffffffffffffffffffffffffff160217905550610c6f806100606000396000f3fe608060405234801561001057600080fd5b50600436106100415760003560e01c80633b70d26f146100465780638da5cb5b14610062578063dc6b862714610080575b600080fd5b610060600480360381019061005b91906106bf565b61009e565b005b61006a610257565b604051610077919061098a565b60405180910390f35b61008861027b565b60405161009591906109a5565b60405180910390f35b3373ffffffffffffffffffffffffffffffffffffffff1660008054906101000a900473ffffffffffffffffffffffffffffffffffffffff1673ffffffffffffffffffffffffffffffffffffffff161461012c576040517f08c379a000000000000000000000000000000000000000000000000000000000815260040161012390610a3d565b60405180910390fd5b60016040518060a00160405280878152602001868152602001858152602001848152602001838152509080600181540180825580915050600190039060005260206000209060050201600090919091909150600082015181600001908051906020019061019a9291906105b4565b5060208201518160010190805190602001906101b79291906105b4565b5060408201518160020190805190602001906101d49291906105b4565b5060608201518160030190805190602001906101f19291906105b4565b50608082015181600401908051906020019061020e9291906105b4565b5050507f8cdd8faf489944941fc651bffdc4a404b57bddc1c35eccf8531de89a4422d77785858585856040516102489594939291906109c7565b60405180910390a15050505050565b60008054906101000a900473ffffffffffffffffffffffffffffffffffffffff1681565b60606001805480602002602001604051908101604052809291908181526020016000905b828210156105ab57838290600052602060002090600502016040518060a00160405290816000820180546102d290610b98565b80601f01602080910402602001604051908101604052809291908181526020018280546102fe90610b98565b801561034b5780601f106103205761010080835404028352916020019161034b565b820191906000526020600020905b81548152906001019060200180831161032e57829003601f168201915b5050505050815260200160018201805461036490610b98565b80601f016020809104026020016040519081016040528092919081815260200182805461039090610b98565b80156103dd5780601f106103b2576101008083540402835291602001916103dd565b820191906000526020600020905b8154815290600101906020018083116103c057829003601f168201915b505050505081526020016002820180546103f690610b98565b80601f016020809104026020016040519081016040528092919081815260200182805461042290610b98565b801561046f5780601f106104445761010080835404028352916020019161046f565b820191906000526020600020905b81548152906001019060200180831161045257829003601f168201915b5050505050815260200160038201805461048890610b98565b80601f01602080910402602001604051908101604052809291908181526020018280546104b490610b98565b80156105015780601f106104d657610100808354040283529160200191610501565b820191906000526020600020905b8154815290600101906020018083116104e457829003601f168201915b5050505050815260200160048201805461051a90610b98565b80601f016020809104026020016040519081016040528092919081815260200182805461054690610b98565b80156105935780601f1061056857610100808354040283529160200191610593565b820191906000526020600020905b81548152906001019060200180831161057657829003601f168201915b5050505050815250508152602001906001019061029f565b50505050905090565b8280546105c090610b98565b90600052602060002090601f0160209004810192826105e25760008555610629565b82601f106105fb57805160ff1916838001178555610629565b82800160010185558215610629579182015b8281111561062857825182559160200191906001019061060d565b5b509050610636919061063a565b5090565b5b8082111561065357600081600090555060010161063b565b5090565b600061066a61066584610a8e565b610a5d565b90508281526020810184848401111561068257600080fd5b61068d848285610b56565b509392505050565b600082601f8301126106a657600080fd5b81356106b6848260208601610657565b91505092915050565b600080600080600060a086880312156106d757600080fd5b600086013567ffffffffffffffff8111156106f157600080fd5b6106fd88828901610695565b955050602086013567ffffffffffffffff81111561071a57600080fd5b61072688828901610695565b945050604086013567ffffffffffffffff81111561074357600080fd5b61074f88828901610695565b935050606086013567ffffffffffffffff81111561076c57600080fd5b61077888828901610695565b925050608086013567ffffffffffffffff81111561079557600080fd5b6107a188828901610695565b9150509295509295909350565b60006107ba83836108f8565b905092915050565b6107cb81610b24565b82525050565b60006107dc82610ace565b6107e68185610af1565b9350836020820285016107f885610abe565b8060005b85811015610834578484038952815161081585826107ae565b945061082083610ae4565b925060208a019950506001810190506107fc565b50829750879550505050505092915050565b600061085182610ad9565b61085b8185610b02565b935061086b818560208601610b65565b61087481610c28565b840191505092915050565b600061088a82610ad9565b6108948185610b13565b93506108a4818560208601610b65565b6108ad81610c28565b840191505092915050565b60006108c5600983610b13565b91507f4e6f74204f776e657200000000000000000000000000000000000000000000006000830152602082019050919050565b600060a08301600083015184820360008601526109158282610846565b9150506020830151848203602086015261092f8282610846565b915050604083015184820360408601526109498282610846565b915050606083015184820360608601526109638282610846565b9150506080830151848203608086015261097d8282610846565b9150508091505092915050565b600060208201905061099f60008301846107c2565b92915050565b600060208201905081810360008301526109bf81846107d1565b905092915050565b600060a08201905081810360008301526109e1818861087f565b905081810360208301526109f5818761087f565b90508181036040830152610a09818661087f565b90508181036060830152610a1d818561087f565b90508181036080830152610a31818461087f565b90509695505050505050565b60006020820190508181036000830152610a56816108b8565b9050919050565b6000604051905081810181811067ffffffffffffffff82111715610a8457610a83610bf9565b5b8060405250919050565b600067ffffffffffffffff821115610aa957610aa8610bf9565b5b601f19601f8301169050602081019050919050565b6000819050602082019050919050565b600081519050919050565b600081519050919050565b6000602082019050919050565b600082825260208201905092915050565b600082825260208201905092915050565b600082825260208201905092915050565b6000610b2f82610b36565b9050919050565b600073ffffffffffffffffffffffffffffffffffffffff82169050919050565b82818337600083830152505050565b60005b83811015610b83578082015181840152602081019050610b68565b83811115610b92576000848401525b50505050565b60006002820490506001821680610bb057607f821691505b60208210811415610bc457610bc3610bca565b5b50919050565b7f4e487b7100000000000000000000000000000000000000000000000000000000600052602260045260246000fd5b7f4e487b7100000000000000000000000000000000000000000000000000000000600052604160045260246000fd5b6000601f19601f830116905091905056fea26469706673582212201505ac2720b0b50ffd1981a9d0f616f970074ad4cadec19f1d2f0f45c7558d4164736f6c63430008000033",
  "linkReferences": {},
  "deployedLinkReferences": {}
}